:04000000FAEF00F023
:08000800046ED8CF05F0E0CF33
:1000100006F00001E9CF0CF0EACF07F0E1CF08F0DD
:10002000E2CF09F0D9CF0AF0DACF0BF0F3CF12F01C
:10003000F4CF13F0FACF14F0F5CF15F0F6CF16F099
:10004000F7CF17F000C00EF001C00FF002C010F0A3
:1000500003C011F09DAA30EF00F09EBA57EF00F0F8
:100060000EC000F00FC001F010C002F011C003F08C
:100070000CC0E9FF07C0EAFF078E08C0E1FF09C016
:10008000E2FF0AC0D9FF0BC0DAFF12C0F3FF13C0B2
:10009000F4FF14C0FAFF15C0F5FF16C0F6FF17C035
:1000A000F7FF045006C0E0FF05C0D8FF10009EAA6D
:1000B000FED7AECF1DF01D500D0816E1036A1C508F
:1000C0001E0F016E000E032203C0EAFF01C0E9FF0C
:1000D000EF6A1C6A1B800A0E9EA8FED7AD6E0D0E3D
:1000E0009EA8FED7AD6E19D01C501C2A036A1E0FA5
:1000F000E96E000E0320EA6E1DC0EFFF036A1C507C
:100100001E0F016E000E032203C0EAFF01C0E9FFCB
:10011000EF6A1D509EA8FED7AD6E9E9A30EF00F09C
:1001200048656C6C6F0A0D00476F6F6420627965DB
:10013000210A0D000900F5520DE0F6CFA3F0F7CF2C
:10014000A4F0F5509EA8FED7AD6EA3C0F6FFA4C0E4
:10015000F7FFF0D71200A3C0E9FFA4C0EAFFEFCF7A
:10016000A7F0A6C003F0A5C0E9FFA6C0EAFFEF50C4
:10017000A75D15E1A4C003F0A3C0E9FF03C0EAFF37
:10018000EF5203E1000E016E1FD0A4C003F0A35193
:10019000A32BD8B4A42BA52BD8B4A62BDCD7A4C0F2
:1001A00003F0A3C0E9FFA4C0EAFFEFCFA7F0A6C009
:1001B00003F0A5C0E9FFA6C0EAFFEF50A75D02E289
:1001C000FF0E01D0010E016E24EF01F0EF5210E09E
:1001D000EACFA4F0E9CFA3F0EF509EA8FED7AD6E12
:1001E000A4C0EAFFA3C0E9FFE92AD8B4EA2AEED7FF
:1001F00034EF01F0F86AD09E078EEA6AE96A330E9E
:10020000AF6EA20EAC6E900EAB6EC180C182C18487
:10021000C196196A1A6A1E6A710E9E6F750E9F6FDB
:10022000690EA06F740EA16FA26B9D8AC00EF212B0
:10023000200EF66E010EF76E7DDFA46B1E0EA36F0F
:10024000A66B9E0EA56F87D7015218E0240E9EA8BC
:10025000FED7AD6E3A0E9EA8FED7AD6E1BA0FED7A0
:10026000EA6A1E0EE96EB2D70A0E9EA8FED7AD6EE0
:100270000D0E9EA8FED7AD6E1B90DFD7280EF66E32
:0E028000010EF76E57DF0300000E016E030043
:020000040030CA
:0E00000000260E0E000181000FC00FE00F4021
:00000001FF
;PIC18F452
;CRC=3CB1  CREATED="26-set-14 14:34"
